:100000000C9434000C9451000C9451000C94510049
:100010000C9451000C9451000C9451000C9451001C
:100020000C9451000C9451000C9451000C9451000C
:100030000C9451000C9451000C9451000C945100FC
:100040000C9451000C9451000C9451000C945100EC
:100050000C9451000C9451000C9451000C945100DC
:100060000C9451000C94510011241FBECFEFD8E026
:10007000DEBFCDBF11E0A0E0B1E0E4E3F1E002C0FB
:1000800005900D92A030B107D9F711E0A0E0B1E0E2
:1000900001C01D92A030B107E1F70E9486000C94C8
:1000A00098000C94000093E890937A0080937C0071
:1000B00080917C00806C80937C0080917A008064C9
:1000C00080937A0080917A0086FDFCCF20E030E0BA
:1000D00080E090917A00906490937A0090917A00F9
:1000E00096FDFCCF4091780050917900240F351F88
:1000F0008F5F843071F780917A008F7780937A00D8
:100100003695279536952795C901089582E084B9DB
:1001100083E88093800081E0809381008AE090E012
:10012000909389008093880080E00E945300F8CF6C
:04013000F894FFCF71
:00000001FF
