:100000000C9434000C9451000C9451000C94510049
:100010000C9451000C94A8010C9451000C945100C4
:100020000C9451000C94CC010C9451000C94510090
:100030000C9451000C9451000C9451000C945100FC
:100040000C9451000C9451000C9451000C945100EC
:100050000C9451000C9451000C9451000C945100DC
:100060000C9451000C94510011241FBECFEFD8E026
:10007000DEBFCDBF11E0A0E0B1E0E2EBF4E002C0F2
:1000800005900D92A430B107D9F711E0A4E0B1E0DA
:1000900001C01D92A832B107E1F70E94F0010C9453
:1000A00057020C94000084B1837C84B984B18C62C3
:1000B00084B983E58CBD0895262F372FF901282FA9
:1000C000392FD90180E008C09D919EBD0DB407FE77
:1000D000FDCF9EB591938F5F8417B0F30895282FBD
:1000E000392FF90180E006C091919EBD0DB407FE45
:1000F000FDCF8F5F8617C0F308958EBD0DB407FE48
:10010000FDCF8EB5089584B1836084B92898299A6B
:10011000569880E480936D0084E0809368000E948C
:100120005300089580910401882339F429988FEFB2
:100130000E947D00299A8074089580E00895A1E0CE
:10014000B0E0E5EAF0E00C94300229988F7180620B
:1001500069830E947D006981862F0E947D00299A13
:100160002196E2E00C944C02CF93DF93EC012998A6
:10017000289881E60E947D00CE01BE0141E00E94E8
:100180005C00299A87E060E40E949F00289A2998E1
:1001900081EE0E947D00299ADF91CF9108958BB165
:1001A00091E089278BB9809104018823B1F02998C7
:1001B0008FEF0E947D00299A299881EE0E947D0090
:1001C000299A289880E06BE40E949F00289A109258
:1001D000040187E060E30E949F00089585E062E0EB
:1001E0000E949F0081E161E00E949F0087E060E340
:1001F0000E949F001092040180E06BE40E949F0027
:10020000289A0895A1E0B0E0E8E0F1E00C942E0215
:100210008B0129988F7149830E947D00C801B80124
:1002200049810E945C00299A2196E4E00C944A02DC
:10023000A1E0B0E0EEE1F1E00C942E028B012998F0
:100240008F71806249830E947D00C8014981642FBB
:100250000E946F00299A2196E4E00C944A02BC01A6
:1002600080E145E00E9418010895BC0128988AE0C9
:1002700045E00E941801289A08951F93CF93DF93B9
:10028000EC01162F809104018823E1F7289881E082
:100290008093040180E06AE40E949F00299881EE27
:1002A0000E947D00299A299880EA0E947D00CE0153
:1002B000612F0E946F00299A289ADF91CF911F9198
:1002C00008951092B000E1EBF0E0808187608083B8
:1002D000E0E7F0E080818160808387EF8093B20067
:1002E00081E08093070108951092700083B78E7F9C
:1002F00083BF10920701089587EF8093B200809129
:10030000050190910601009749F0809105019091B7
:1003100006010197909306018093050180910501E4
:1003200090910601009711F40E9474010895909332
:100330000601809305010E946101789483B7816072
:1003400083BF85B7806685BF8F7D85BF88950895FB
:100350001F920F920FB60F9211242F933F934F933A
:100360005F936F937F938F939F93AF93BF93EF931D
:10037000FF930E94CF00FF91EF91BF91AF919F91AA
:100380008F917F916F915F914F913F912F910F903E
:100390000FBE0F901F9018951F920F920FB60F92DD
:1003A00011242F933F934F935F936F937F938F937A
:1003B0009F93AF93BF93EF93FF930E947C01FF91B4
:1003C000EF91BF91AF919F918F917F916F915F91CD
:1003D0004F913F912F910F900FBE0F901F90189546
:1003E0000F931F93CF93DF93519A58980E948300E5
:1003F00084EF91E028EC30E0F9013197F1F70197B3
:10040000D9F778940E94EE0001E012E0C0EDD7E049
:1004100080910801813019F41093080102C0009303
:100420000801809100019091010161E00E943D016D
:10043000CE010197F1F788EE93E00E949701E8CF93
:100440002F923F924F925F926F927F928F929F92E4
:10045000AF92BF92CF92DF92EF92FF920F931F93D2
:10046000CF93DF93CDB7DEB7CA1BDB0B0FB6F89483
:10047000DEBF0FBECDBF09942A88398848885F84C3
:100480006E847D848C849B84AA84B984C884DF8034
:10049000EE80FD800C811B81AA81B981CE0FD11D18
:1004A0000FB6F894DEBF0FBECDBFED010895F894EE
:0204B000FFCF7C
:0404B200080120001D
:00000001FF
