:100000000C9434000C9451000C9451000C94510049
:100010000C9451000C9461010C9451000C9451000B
:100020000C9451000C9451000C9451000C9451000C
:100030000C9451000C9451000C9451000C945100FC
:100040000C9451000C9451000C9451000C945100EC
:100050000C9451000C9451000C9451000C945100DC
:100060000C9451000C94510011241FBECFEFD8E026
:10007000DEBFCDBF11E0A0E0B1E0ECEDF3E002C0E7
:1000800005900D92A430B107D9F711E0A4E0B1E0DA
:1000900001C01D92A532B107E1F70E9485010C94C1
:1000A000EC010C94000084B1837C84B984B18C622F
:1000B00084B983E58CBD0895262F372FF901282FA9
:1000C000392FD90180E008C09D919EBD0DB407FE77
:1000D000FDCF9EB591938F5F8417B0F30895282FBD
:1000E000392FF90180E006C091919EBD0DB407FE45
:1000F000FDCF8F5F8617C0F308958EBD0DB407FE48
:10010000FDCF8EB5089584B1836084B92898299A6B
:10011000569880E480936D0084E0809368000E948C
:100120005300089580910401882339F429988FEFB2
:100130000E947D00299A8074089580E00895A1E0CE
:10014000B0E0E5EAF0E00C94C50129988F71806277
:1001500069830E947D006981862F0E947D00299A13
:100160002196E2E00C94E101CF93DF93EC01299812
:10017000289881E60E947D00CE01BE0141E00E94E8
:100180005C00299A87E060E40E949F00289A2998E1
:1001900081EE0E947D00299ADF91CF9108958BB165
:1001A00091E089278BB9809104018823B1F02998C7
:1001B0008FEF0E947D00299A299881EE0E947D0090
:1001C000299A289880E06BE40E949F00289A109258
:1001D000040187E060E30E949F00089585E062E0EB
:1001E0000E949F0081E161E00E949F0087E060E340
:1001F0000E949F001092040180E06BE40E949F0027
:10020000289A0895A1E0B0E0E8E0F1E00C94C30181
:100210008B0129988F7149830E947D00C801B80124
:1002200049810E945C00299A2196E4E00C94DF0148
:10023000A1E0B0E0EEE1F1E00C94C3018B0129985C
:100240008F71806249830E947D00C8014981642FBB
:100250000E946F00299A2196E4E00C94DF01BC0112
:1002600080E145E00E9418010895BC0128988AE0C9
:1002700045E00E941801289A08951F93CF93DF93B9
:10028000EC01162F809104018823E1F7289881E082
:100290008093040180E06AE40E949F00299881EE27
:1002A0000E947D00299A299880EA0E947D00CE0153
:1002B000612F0E946F00299A289ADF91CF911F9198
:1002C00008951F920F920FB60F9211242F933F9310
:1002D0004F935F936F937F938F939F93AF93BF934E
:1002E000EF93FF930E94CF00FF91EF91BF91AF91E9
:1002F0009F918F917F916F915F914F913F912F913E
:100300000F900FBE0F901F9018950F931F93CF93D0
:10031000DF93519A58980E94830084EF91E028EC73
:1003200030E0F9013197F1F70197D9F778940E94FD
:10033000EE0001E012E0C8ECD0E0809105018130D0
:1003400019F41093050102C000930501809100018A
:100350009091010161E00E943D0180E197E2FE0180
:100360003197F1F70197D9F7E8CF2F923F924F924B
:100370005F926F927F928F929F92AF92BF92CF9235
:10038000DF92EF92FF920F931F93CF93DF93CDB73E
:10039000DEB7CA1BDB0B0FB6F894DEBF0FBECDBFB6
:1003A00009942A88398848885F846E847D848C8487
:1003B0009B84AA84B984C884DF80EE80FD800C8190
:1003C0001B81AA81B981CE0FD11D0FB6F894DEBF73
:0C03D0000FBECDBFED010895F894FFCFE3
:0403DC0005012000F7
:00000001FF
