:100000000C9434000C9451000C9451000C94510049
:100010000C9451000C9451000C9451000C9451001C
:100020000C9451000C9451000C9451000C9451000C
:100030000C9451000C9451000C9451000C945100FC
:100040000C9451000C9451000C9451000C945100EC
:100050000C9451000C9451000C9451000C945100DC
:100060000C9451000C94510011241FBECFEFD8E026
:10007000DEBFCDBF11E0A0E0B1E0E2E3F4E002C0FA
:1000800005900D92A030B107D9F711E0A0E0B1E0E2
:1000900001C01D92A030B107E1F70E94AA000C94A4
:1000A00017020C94000046E954E028E735E08BB1D4
:1000B00085278BB9C9010197F1F74150C1F75A98CB
:1000C000089593E890937A0080937C0080917C005F
:1000D000806C80937C0080917A00806480937A00A9
:1000E00080917A0086FDFCCF44E020E030E08091F2
:1000F0007A00806480937A0080917A0086FDFCCF3C
:100100008091780090917900280F391F415079F73C
:1001100080917A008F7780937A003695279536956F
:100120002795C9010895589A8AE18A95F1F7589858
:10013000499BFECF80E090E032E004C00196232F7F
:100140002A95F1F74999FACF6AE370E00E94D40149
:10015000CB010895A0E0B0E0E0EBF0E00C94E90101
:100160008FEF84B98DEF8AB982EA809380008AE1AB
:100170008093810080E29EE49093870080938600C4
:100180008CED95E0909389008093880083EA84BD8C
:1001900083E085BD17BC18BC5F9828988AEA95E073
:1001A000909389008093880084EF91E028EC30E000
:1001B000F9013197F1F70197D9F78AEA95E0909321
:1001C00089008093880084EF91E028EC30E0F90109
:1001D0003197F1F70197D9F7C8ECD0E054E8852EB4
:1001E00053E0952E4CE6442E47E0542E0AEA15E0E3
:1001F0003DECD32E22E3C22E91EDA92EBB240E940A
:1002000093009C017C0184EF91E0FE013197F1F7AE
:100210000197D9F72331310508F058C017BC18BC35
:100220005F9828980E9453009092890080928800DD
:1002300080EA9FE0FE013197F1F70197D9F70E941C
:1002400093003C01509289004092880080EA9FE030
:10025000FE013197F1F70197D9F70E9493009C01B5
:10026000109389000093880080ED97E0FE0131979C
:10027000F1F70197D9F70FC0C7BCD8BC5F98289A8F
:100280000E9493009C0184EF91E0FE013197F1F709
:100290000197D9F704C02615370570F313C029312B
:1002A000310550F313C0D7BCC8BC5F9A28980E9490
:1002B0009300E82EF92E84EF91E0FE013197F1F7DB
:1002C0000197D9F789E1E816F10468F3A7BCD8BC17
:1002D0005F982898B3948B2D843109F090CF909239
:1002E0008900809288008CED95E0FE013197F1F74E
:1002F0000197D9F70E9493008E309105B8F417BC8E
:1003000018BC5F9828980E945300D7BCC8BC5F9A5D
:1003100028980E9493009C0188EE93E0FE0131979B
:10032000F1F70197D9F72431310578F3109389005B
:100330000093880088EE93E0FE013197F1F7019772
:10034000D9F750928900409288008CED95E0FE012B
:100350003197F1F70197D9F70E9493008E309105FC
:10036000B8F417BC18BC5F9828980E945300C7BC0B
:10037000D8BC5F98289A0E9493009C0188EE93E075
:10038000FE013197F1F70197D9F72431310578F360
:10039000109389000093880088EE93E0FE01319766
:1003A000F1F70197D9F72ACF97FB092E07260AD034
:1003B00077FD04D028D006D000201AF470956195FE
:1003C0007F4F0895F6F7909581959F4F08952F924E
:1003D0003F924F925F926F927F928F929F92AF92D5
:1003E000BF92CF92DF92EF92FF920F931F93CF9322
:1003F000DF93CDB7DEB7CA1BDB0B0FB6F894DEBFB9
:100400000FBECDBF0994AA1BBB1B51E107C0AA1F99
:10041000BB1FA617B70710F0A61BB70B881F991FA5
:100420005A95A9F780959095BC01CD010895F8944F
:02043000FFCFFC
:00000001FF
