:100000000C9434000C9451000C9451000C94510049
:100010000C9451000C9451000C9451000C9451001C
:100020000C9451000C9451000C9451000C9451000C
:100030000C9451000C9451000C9451000C945100FC
:100040000C9451000C9451000C9451000C945100EC
:100050000C9451000C9451000C9451000C945100DC
:100060000C9451000C94510011241FBECFEFD8E026
:10007000DEBFCDBF12E0A0E0B1E0E8E6F3E102C0F0
:1000800005900D92AC30B107D9F712E0ACE0B2E0C8
:1000900001C01D92AC30B107E1F70E9453000C94EF
:1000A000B2090C940000A0E0B0E0E9E5F0E00C94A7
:1000B000BF0882E084B983E88093800081E0809368
:1000C00081008AE090E0909389008093880088EC1A
:1000D000682E712C0E94460967E071E00E94AC080E
:1000E000655B7F4F709389006093880080908800E3
:1000F000909089008FEF90E0881999094C0188EE63
:1001000093E0B4010E9498081B01C0E0D0E04424B1
:10011000552487C080918800909189000196909322
:10012000890080938800C201B1010E9427065B010B
:100130006C012BEA3AEA4AE250E40E943C037B015C
:100140008C017F2D912F20E030E040E85FE30E949A
:100150004505882314F461E061C06E2D7F2D802F4A
:10016000912F20E030E04FE753E40E94E504181699
:100170000CF04EC0C601B50120E030E04AE754E47F
:100180000E943604A62ED72EC82EB92E20E030E0CD
:100190004AEF54E40E943C037B018C017F2D912F98
:1001A00020E030E040E85FE30E94450588231CF42E
:1001B00081E090E02AC06E2D7F2D802F912F20E0CE
:1001C0003FEF4FE757E40E94E5041816B4F46A2D98
:1001D0007D2D8C2D9B2D20E030E040E251E40E94EB
:1001E0003C030E94650105C0C3010197F1F761500E
:1001F000704061157105C1F713C06E2D7F2D802FE2
:10020000912F0E946501DC01CB010197F1F708C035
:100210006E2D7F2D802F912F0E9465016A95F1F739
:100220002196C815D90508F475CF0E94460968E4DF
:1002300071E00E94AC086D5D7F4F882777FD809547
:10024000982F0E9475055B016C0120E030E04AEFB9
:1002500054E40E943C037B018C017F2D912F20E010
:1002600030E040E85FE30E94450588231CF481E00C
:1002700090E028C06E2D7F2D802F912F20E03FEF42
:100280004FE757E40E94E5041816A4F4C601B5012F
:1002900020E030E040E251E40E943C030E9465010E
:1002A00005C0C3010197F1F76150704061157105F8
:1002B000C1F710CF6E2D7F2D802F912F0E946501E9
:1002C000DC01CB010197F1F705CFEF92FF920F937D
:1002D0001F937B018C0120E030E040E05FE40E944E
:1002E000150588238CF0C801B70120E030E040E01C
:1002F0005FE40E94DE020E94D3059B01AC01205006
:1003000030404040504806C0C801B7010E94D305A4
:100310009B01AC01B901CA011F910F91FF90EF90B1
:100320000895A0E0B0E0E7E9F1E00C94C108FC0119
:100330002B01EA018081823008F43AC1DB019C91F3
:10034000923008F434C1843069F4943009F030C13B
:10035000918111968C911197981709F429C1E0E0C9
:10036000F1E026C1943009F422C19230A9F4823020
:1003700009F01EC19F0188E0D9010D909D01DA01AD
:100380000D92AD018150C1F7D20111968C91119758
:1003900091818923898309C1823009F408C182814E
:1003A0009381DB0112964D915C911397E480F58067
:1003B000068117811496AD90BD90CD90DC90179773
:1003C0009C01241B350BB90137FF04C06627772732
:1003D000621B730B603271050CF062C012161306BB
:1003E0006CF535014601062E04C0969487947794E7
:1003F00067940A94D2F721E030E040E050E004C076
:10040000220F331F441F551F6A95D2F721503040E9
:10041000404050402A213B214C215D2121153105CE
:100420004105510521F021E030E040E050E0590164
:100430006A01A628B728C828D9283DC0211531054A
:10044000D1F1860F971F37014801062E04C09694FC
:100450008794779467940A94D2F721E030E040E0E3
:1004600050E004C0220F331F441F551F6A95D2F776
:1004700021503040404050402E213F214023512305
:10048000211531054105510521F021E030E040E022
:1004900050E079018A01E628F728082919290BC0BC
:1004A000481759072CF0CA01EE24FF24870103C026
:1004B000AA24BB2465012181F2013181231709F4AB
:1004C00047C0222349F0A60195012E193F09400B90
:1004D000510B79018A0104C0EA18FB080C091D09B7
:1004E00017FD0CC019829B838A83EC82FD820E83E8
:1004F0001F838C819D81AE81BF8117C021E029833C
:100500009B838A8310950095F094E094E11CF11C84
:10051000011D111DEACF880F991FAA1FBB1F2A8139
:100520003B81215030403B832A839C01AD01215007
:100530003040404050402F3F6FEF36076FEF460787
:100540006FE3560740F38C839D83AE83BF830BC05C
:1005500029839B838A83EA0CFB1C0C1D1D1DEC82E6
:10056000FD820E831F8383E088832C813D814E8131
:100570005F8157FF1AC0C901AA2797FDA095BA2F1E
:1005800081709070A070B0705695479537952795FB
:10059000822B932BA42BB52B8C839D83AE83BF839F
:1005A0008A819B8101969B838A83FE0101C0F201AF
:1005B000CF01CDB7DEB7E0E10C94DD08A0E2B0E0FA
:1005C000E4EEF2E00C94CB0869837A838B839C83FE
:1005D0002D833E834F835887E9E0EE2EF12CEC0EFD
:1005E000FD1ECE010196B7010E94CA078E010F5E63
:1005F0001F4FCE010596B8010E94CA078A8991E073
:1006000089278A8BC701B801AE01475E5F4F0E9400
:1006100091010E94F906A096E6E00C94E708A0E29A
:10062000B0E0E5E1F3E00C94CB0869837A838B8337
:100630009C832D833E834F835887F9E0EF2EF12C66
:10064000EC0EFD1ECE010196B7010E94CA078E0175
:100650000F5E1F4FCE010596B8010E94CA07C70161
:10066000B801AE01475E5F4F0E9491010E94F906FA
:10067000A096E6E00C94E708A0E2B0E0E2E4F3E044
:100680000C94BF0869837A838B839C832D833E837C
:100690004F835887CE010196BE01675F7F4F0E944E
:1006A000CA07CE010596BE016F5E7F4F0E94CA0742
:1006B0009985923088F089898230C8F0943019F495
:1006C000823051F404C0843029F4923081F480E007
:1006D00091E0C6C0923049F480E02A859A892913B6
:1006E00081E08A87CE010996BBC0823049F480E060
:1006F0002A859A89291381E08A8BCE014196B0C060
:100700006D847E848F849888AD88BE88CF88D88C8D
:1007100060E070E080E090E0A0E0B0E0EE24FF2434
:10072000870120E030E040E050E0F301E170F0703C
:100730003097C9F02A0D3B1D4C1D5D1D8E0D9F1D70
:10074000A01FB11F2224332421012A153B054C058B
:100750005D0528F4E1E02E2E312C412C512C820D28
:10076000931DA41DB51DEE0CFF1C001F111FD7FE0D
:1007700009C0E1E02E2E312C412C512CE228F32827
:10078000042915296F5F7F4F6032710549F0AA0C6B
:10079000BB1CCC1CDD1C9694879477946794C5CFC2
:1007A0006B897C89EB85FC856E0F7F1F6E5F7F4FA9
:1007B0007C8F6B8F1A8E7A856A89761711F061E0CB
:1007C0006A8F6B8D7C8D10C0FC01E170F0703097EA
:1007D00029F056954795379527955068B695A79572
:1007E000979587956F5F7F4FB7FDEECF0CC0880F51
:1007F000991FAA1FBB1F57FD8160220F331F441F83
:10080000551F615070408030E0E09E07E0E0AE0789
:10081000E0E4BE0760F36B8F7C8F6FE7E62EF12C70
:10082000012D112DE822F9220A231B2360E4E6168C
:10083000F1040105110561F487FD0AC02115310598
:100840004105510529F0805C9F4FAF4FBF4F807825
:100850008D8F9E8FAF8FB8A383E0898FCE0149968D
:100860000E94F906A096E2E10C94DB08A8E1B0E052
:10087000ECE3F4E00C94C70869837A838B839C8350
:100880002D833E834F8358878E01075F1F4FCE0114
:100890000196B8010E94CA0781E1E82EF12CEC0E06
:1008A000FD1ECE010596B7010E94CA0799859230B8
:1008B00008F484C08989823010F487017FC02A85BA
:1008C0003A8923272A87943011F0923031F498170F
:1008D00009F071C000E011E071C0843039F41D8668
:1008E0001E861F86188A1C861B8668C0823019F4F3
:1008F00084E0898763C08B859C852B893C89821B1A
:10090000930B9C878B872D853E854F855889AD88B5
:10091000BE88CF88D88C2A153B054C055D0538F478
:10092000220F331F441F551F01979C878B8760E060
:1009300070E0E12CF12C012DA0E41A2F80E090E072
:10094000A0E0B0E02A153B054C055D0540F08E297E
:100950009F29A02BB12B2A193B094C095D0916953B
:100960000795F794E794220F331F441F551F6F5FBD
:100970007F4F6F31710531F76FE7E62EF12C012DB6
:10098000112DE822F9220A231B2360E4E616F10464
:100990000105110561F487FD0AC0211531054105E6
:1009A000510529F0805C9F4FAF4FBF4F80788D87F6
:1009B0009E87AF87B88B8E01075F1F4FC8010E94CB
:1009C000F9066896EAE00C94E308A8E1B0E0EBEEE3
:1009D000F4E00C94CB0869837A838B839C832D830A
:1009E0003E834F83588789E0E82EF12CEC0EFD1EE4
:1009F000CE010196B7010E94CA078E010F5E1F4FFC
:100A0000CE010596B8010E94CA078985823040F060
:100A10008989823028F0C701B8010E94390801C0D5
:100A20008FEF6896E6E00C94E708A8E1B0E0EBE110
:100A3000F5E00C94CB0869837A838B839C832D83A8
:100A40003E834F83588789E0E82EF12CEC0EFD1E83
:100A5000CE010196B7010E94CA078E010F5E1F4F9B
:100A6000CE010596B8010E94CA078985823040F000
:100A70008989823028F0C701B8010E94390801C075
:100A80008FEF6896E6E00C94E708A8E1B0E0EBE4AD
:100A9000F5E00C94CB0869837A838B839C832D8348
:100AA0003E834F83588789E0E82EF12CEC0EFD1E23
:100AB000CE010196B7010E94CA078E010F5E1F4F3B
:100AC000CE010596B8010E94CA078985823040F0A0
:100AD0008989823028F0C701B8010E94390801C015
:100AE00081E06896E6E00C94E708A8E0B0E0EBE768
:100AF000F5E00C94C9087B018C0183E08983D8015F
:100B0000C7018827B7FD83959927AA27BB278A8322
:100B1000E114F1040105110519F482E089833BC059
:100B20008823B1F080E0E81680E0F80680E008074E
:100B300080E8180729F460E070E080E09FEC2FC0A7
:100B400010950095F094E094E11CF11C011D111D1D
:100B50008EE1C82ED12CDC82CB82ED82FE820F8307
:100B60001887C801B7010E94A0069C01215030409F
:100B70001216130684F4022E04C0EE0CFF1C001F94
:100B8000111F0A94D2F7ED82FE820F831887C21AD2
:100B9000D30ADC82CB82CE0101960E94F906289608
:100BA000E8E00C94E508ACE0B0E0E9EDF5E00C9489
:100BB000CF0869837A838B839C83CE010196BE0123
:100BC0006B5F7F4F0E94CA078D81823061F1823056
:100BD00050F1843021F48E81882351F12EC02F8171
:100BE000388537FD20C06E812F3131051CF066231A
:100BF000F9F023C08EE190E0821B930B29853A85A2
:100C00004B855C8504C056954795379527958A9501
:100C1000D2F76623B1F050954095309521953F4F1E
:100C20004F4F5F4F0EC020E030E040E050E009C081
:100C30002FEF3FEF4FEF5FE704C020E030E040E0F0
:100C400050E8B901CA012C96E2E00C94EB08A8E048
:100C5000B0E0EDE2F6E00C94C9087B018C011A8249
:100C6000611571058105910519F482E0898360C0E1
:100C700083E089838EE1C82ED12CDC82CB82ED8289
:100C8000FE820F831887C801B7010E94A0069C014D
:100C90002150304037FF39C0EE27FF27E21BF30B0E
:100CA00040E050E060E070E081E090E0A0E0B0E083
:100CB0000E2E04C0880F991FAA1FBB1F0A94D2F7DB
:100CC0000197A109B1098E219F21A023B12300978B
:100CD000A105B10521F041E050E060E070E004C002
:100CE00016950795F794E794EA95D2F7E42AF52A42
:100CF000062B172BED82FE820F8318878EE190E082
:100D0000821B930B9C838B8313C02115310581F0CB
:100D1000022E04C0EE0CFF1C001F111F0A94D2F714
:100D2000ED82FE820F831887C21AD30ADC82CB823F
:100D3000CE0101960E94F9062896E8E00C94E50899
:100D4000AF92BF92CF92DF92EF92FF920F931F93D9
:100D50007B018C0180E0E81680E0F80681E008075E
:100D600080E0180788F48FEFE816F10401051105FB
:100D700031F028F088E090E0A0E0B0E017C080E01B
:100D800090E0A0E0B0E012C080E0E81680E0F80655
:100D900080E0080781E0180728F088E190E0A0E0F3
:100DA000B0E004C080E190E0A0E0B0E020E230E0FC
:100DB00040E050E0281B390B4A0B5B0B57016801E0
:100DC00004C0D694C794B794A7948A95D2F7F50136
:100DD000E85FFE4F8081281B310941095109C90193
:100DE0001F910F91FF90EF90DF90CF90BF90AF9049
:100DF0000895CF92DF92EF92FF920F931F93FC0121
:100E0000248135814681578101818081823020F49F
:100E100040618FEF90E0A4C0843009F49BC0823021
:100E200019F480E090E098C0211531054105510585
:100E300019F480E090E094C0828193816FEF823852
:100E400096070CF059C062E87FEF681B790B6A3196
:100E500071052CF020E030E040E050E02AC069014C
:100E60007A01062E04C0F694E794D794C7940A94A6
:100E7000D2F781E090E0A0E0B0E004C0880F991FB5
:100E8000AA1FBB1F6A95D2F70197A109B109822356
:100E90009323A423B5230097A105B10521F081E098
:100EA00090E0A0E0B0E09C01AD012C293D294E2945
:100EB0005F29DA01C9018F779070A070B07080341B
:100EC0009105A105B10539F427FF09C0205C3F4F0A
:100ED0004F4F5F4F04C0215C3F4F4F4F5F4F80E04B
:100EE00090E0203060E0360760E0460760E4560797
:100EF00048F181E090E026C0803891055CF581588A
:100F00009F4F7FE7C72ED12CE12CF12CC222D32298
:100F1000E422F52260E4C616D104E104F10439F4B8
:100F200027FF09C0205C3F4F4F4F5F4F04C0215C3B
:100F30003F4F4F4F5F4F57FF05C056954795379529
:100F40002795019697E056954795379527959A9559
:100F5000D1F706C08FEF90E020E030E040E050E0B5
:100F6000782F779577277795142F1F77602F6795C0
:100F7000662767958695F12FF72BE82FE62B622FD2
:100F8000732F8F2F9E2F1F910F91FF90EF90DF9067
:100F9000CF900895FC01DB01208131818281482FAF
:100FA0004F7750E0982F991F9927991F6381862FBB
:100FB000880F892B90E0661F6627661F11966C9339
:100FC0001197009769F5211531054105510511F477
:100FD00082E02FC082E89FEF13969C938E93129726
:100FE00067E0220F331F441F551F6A95D1F783E036
:100FF0008C930DC0220F331F441F551F12968D91E5
:101000009C911397019713969C938E93129720307F
:1010100080E0380780E0480780E4580758F322C092
:101020008F3F910579F4211531054105510519F4DA
:1010300084E08C93089544FF03C081E08C9312C038
:101040001C9210C08F57904013969C938E931297CA
:1010500083E08C9387E0220F331F441F551F8A952E
:10106000D1F7506414962D933D934D935C9317974D
:101070000895EF92FF920F931F93FC01DB01808193
:10108000823008F447C09C91923008F443C0843009
:1010900051F481819430A1F511962C91119730E093
:1010A000281B31093FC0943021F0823031F4923056
:1010B000B9F111968C9111972BC08181923001F179
:1010C00011969C9111978917D9F4428153811296F8
:1010D0002D913C9113972417350794F0421753072D
:1010E000BCF0E480F5800681178114962D913D9126
:1010F0004D915C9117972E153F054007510718F445
:10110000882341F00AC0E216F3060407150740F4ED
:10111000882319F021E030E005C02FEF3FEF02C037
:1011200020E030E0C9011F910F91FF90EF900895EA
:10113000AA1BBB1B51E107C0AA1FBB1FA617B707FD
:1011400010F0A61BB70B881F991F5A95A9F7809519
:101150009095BC01CD01089597FB092E07260AD072
:1011600077FD04D0E5DF06D000201AF47095619574
:101170007F4F0895F6F7909581959F4F08952F9290
:101180003F924F925F926F927F928F929F92AF9217
:10119000BF92CF92DF92EF92FF920F931F93CF9364
:1011A000DF93CDB7DEB7CA1BDB0B0FB6F894DEBFFB
:1011B0000FBECDBF09942A88398848885F846E8421
:1011C0007D848C849B84AA84B984C884DF80EE806B
:1011D000FD800C811B81AA81B981CE0FD11D0FB674
:1011E000F894DEBF0FBECDBFED010895A0E0B0E0E2
:1011F000ECEFF8E00C94C708EC01E880F9800A8174
:101200001B81E114F1040105110541F484E2E82E8B
:1012100089EDF82E8BE5082F87E0182FC801B7015C
:101220002DE133EF41E050E00E94750927EA31E4F7
:1012300040E050E00E9456095B016C01C801B70113
:101240002DE133EF41E050E00E947509CA01B90178
:101250002CEE34EF4FEF5FEF0E9456096A0D7B1DB5
:101260008C1D9D1D97FF04C06150704080409048C8
:10127000688379838A839B837F77CB01CDB7DEB781
:10128000EAE00C94E3080E94F608089588E092E0F2
:101290000E94F6080895A0E0B0E0809308029093C1
:1012A0000902A0930A02B0930B020895629FD00135
:1012B000739FF001829FE00DF11D649FE00DF11D11
:1012C000929FF00D839FF00D749FF00D659FF00DC0
:1012D0009927729FB00DE11DF91F639FB00DE11DAD
:1012E000F91FBD01CF011124089597FB092E052692
:1012F0000ED057FD04D014D00AD0001C38F45095FD
:101300004095309521953F4F4F4F5F4F0895F6F729
:1013100090958095709561957F4F8F4F9F4F089561
:10132000A1E21A2EAA1BBB1BFD010DC0AA1FBB1FE9
:10133000EE1FFF1FA217B307E407F50720F0A21B5B
:10134000B30BE40BF50B661F771F881F991F1A94C8
:1013500069F760957095809590959B01AC01BD01F2
:08136000CF010895F894FFCFBE
:101368000000000000000000000102020303030364
:10137800040404040404040405050505050505051D
:1013880005050505050505050606060606060606FD
:1013980006060606060606060606060606060606E5
:1013A80006060606060606060707070707070707CD
:1013B80007070707070707070707070707070707B5
:1013C80007070707070707070707070707070707A5
:1013D8000707070707070707070707070707070795
:1013E800070707070707070708080808080808087D
:1013F8000808080808080808080808080808080865
:101408000808080808080808080808080808080854
:101418000808080808080808080808080808080844
:101428000808080808080808080808080808080834
:101438000808080808080808080808080808080824
:101448000808080808080808080808080808080814
:101458000808080808080808080808080808080804
:0C14680008080808080808080100000037
:00000001FF
