:100000000C9434000C9451000C9451000C94510049
:100010000C9451000C9451000C9451000C9451001C
:100020000C9451000C9451000C9451000C9451000C
:100030000C9451000C9451000C9451000C945100FC
:100040000C9451000C9451000C9451000C945100EC
:100050000C9451000C9451000C9451000C945100DC
:100060000C9451000C94510011241FBECFEFD8E026
:10007000DEBFCDBF11E0A0E0B1E0E6EEF0E002C0EF
:1000800005900D92A030B107D9F711E0A0E0B1E0E2
:1000900001C01D92A030B107E1F70E945D000C94F1
:1000A00071000C94000024EC39E004C0F901319790
:1000B000F1F701970097D1F70895209A24EC39E0E1
:1000C000289884E690E0F9013197F1F70197D9F784
:1000D000289A84E893E0F9013197F1F70197D9F76D
:0600E000EFCFF894FFCF02
:00000001FF
