:100000000C9434000C9451000C9451000C94510049
:100010000C9451000C9451000C9451000C9451001C
:100020000C9451000C9451000C9451000C9451000C
:100030000C9451000C9451000C9451000C945100FC
:100040000C9451000C9451000C9451000C945100EC
:100050000C9451000C9451000C9451000C945100DC
:100060000C9451000C94510011241FBECFEFD8E026
:10007000DEBFCDBF11E0A0E0B1E0E2E0F2E002C0FF
:1000800005900D92A030B107D9F711E0A0E0B1E0E2
:1000900001C01D92A030B107E1F70E9453000C94FB
:1000A000FF000C940000A2E0B0E0E9E5F0E00C9461
:1000B000B3008FEF8AB900E010E07E010894E11CE4
:1000C000F11C81E0C82ED12C02C000E010E0C80174
:1000D000B7014AE050E00E94C5000A30110538F42B
:1000E000898119821A828B8320E030E024C0C80104
:1000F0000A978A359105C0F799818A8119829A8376
:10010000F2CF6BB1A601082E02C0440F551F0A940E
:10011000E2F764236BB951915F705BB95BB1542B0B
:100120005BB901968830910561F72F5F3F4F8EE4F0
:100130002032380721F0F70185E090E0E2CF8BB163
:100140001BB80F5F1F4F83E0083E180708F0BDCFB4
:10015000BECF2F923F924F925F926F927F928F927B
:100160009F92AF92BF92CF92DF92EF92FF920F9346
:100170001F93CF93DF93CDB7DEB7CA1BDB0B0FB650
:10018000F894DEBF0FBECDBF0994FB019F01423042
:1001900074F0453264F4642F77270E94EB00805D91
:1001A0008A330CF0895D8193CB010097A1F710820F
:1001B000C9010C94DB00DC01FC01672F71917723EE
:1001C000E1F7329704C07C916D9370836291AE1712
:1001D000BF07C8F30895AA1BBB1B51E107C0AA1FA4
:1001E000BB1FA617B70710F0A61BB70B881F991FD8
:1001F0005A95A9F780959095BC01CD010895F89482
:02020000FFCF2E
:00000001FF
